S01300006C63645F6C6962726172792E737265638A
S11300000C942A000C943F000C943F000C943F0085
S11300100C943F000C943F000C943F000C943F0060
S11300200C943F000C943F000C943F000C943F0050
S11300300C943F000C943F000C943F000C943F0040
S11300400C943F000C943F000C943F000C943F0030
S11300500C943F0011241FBECFE5D8E0DEBFCDBF16
S113006010E0A0E6B0E0E2EAF2E002C005900D92F2
S1130070AC37B107D9F70E9412010C944F010C94CC
S113008000008295807F92B3926092BB92B39F707E
S113009092BB92B3892B82BB000082B38D7F82BB5B
S11300A00895CF93C82F662321F082B3816082BB69
S11300B003C082B38E7F82BB8C2F82958F700E9487
S11300C041008C2F0E944100CF9108950F931F93FC
S11300D0CF938C01C0E004C061E00E945100CF5F67
S11300E0F801EC0FF11D80818111F6CFCF911F91A2
S11300F00F91089590E4899F600D1124862F60E08C
S113010080680E94510080E18A95F1F700C008954B
S113011081B3836F81BB8FE097E20197F1F700C051
S1130120000082B38E7F82BB83E00E94410081EE97
S113013094E00197F1F700C0000083E00E944100C1
S113014092E39A95F1F783E00E94410080E18A9559
S1130150F1F700C082E00E94410090E19A95F1F726
S113016000C060E070E088E290E00E94510080E10D
S11301708A95F1F700C060E070E08CE090E00E94A6
S1130180510090E19A95F1F700C060E070E081E0E1
S113019090E00E94510083EF91E00197F1F700C0D5
S11301A0000060E070E086E090E00E94510090E181
S11301B09A95F1F700C080E690E00E94660060E046
S11301C081E00E947A0087E690E00E94660008952C
S11301D00F931F93CF93DF9300D000D0CDB7DEB73A
S11301E0162F042F4AE0BE016F5F7F4F90E00E94FC
S11301F02501602F812F0E947A0088E790E00E94F9
S11302006600602F812F0E947A00CE0101960E9421
S113021066000F900F900F900F90DF91CF911F9178
S11302200F9108950E948800CAEF2FE986E891E0B3
S1130230215080409040E1F700C00000CF5F46E0CD
S113024060E08C2F0E94E800F0CFBB27FB0155270C
S1130250AA27880F991FAA1FA41710F0A41B83951F
S11302605051B9F7A05DAA3308F0A95DA193009796
S113027079F7B111B1931192CB010C943F01DC01D8
S1130280FC01672F71917723E1F7329704C07C91C9
S11302906D9370836291AE17BF07C8F30895F89405
S10502A0FFCF8A
S11302A2636F756E743D004279204D2E204D61724C
S10F02B274796E656E6B6F0020202000D4
S9030000FC
